{
    "contractName": "Accounts",
    "abi": [
        {
            "inputs": [],
            "stateMutability": "nonpayable",
            "type": "constructor"
        },
        {
            "inputs": [
                {
                    "internalType": "address",
                    "name": "",
                    "type": "address"
                },
                {
                    "internalType": "uint256",
                    "name": "",
                    "type": "uint256"
                }
            ],
            "name": "accountToAddresses",
            "outputs": [
                {
                    "internalType": "uint256",
                    "name": "id",
                    "type": "uint256"
                },
                {
                    "internalType": "string",
                    "name": "accountname",
                    "type": "string"
                },
                {
                    "internalType": "uint256",
                    "name": "balance",
                    "type": "uint256"
                },
                {
                    "internalType": "address",
                    "name": "createdby",
                    "type": "address"
                }
            ],
            "stateMutability": "view",
            "type": "function",
            "constant": true
        },
        {
            "inputs": [
                {
                    "internalType": "uint256",
                    "name": "",
                    "type": "uint256"
                }
            ],
            "name": "accounts",
            "outputs": [
                {
                    "internalType": "uint256",
                    "name": "id",
                    "type": "uint256"
                },
                {
                    "internalType": "string",
                    "name": "accountname",
                    "type": "string"
                },
                {
                    "internalType": "uint256",
                    "name": "balance",
                    "type": "uint256"
                },
                {
                    "internalType": "address",
                    "name": "createdby",
                    "type": "address"
                }
            ],
            "stateMutability": "view",
            "type": "function",
            "constant": true
        },
        {
            "inputs": [],
            "name": "no_of_accounts",
            "outputs": [
                {
                    "internalType": "uint256",
                    "name": "",
                    "type": "uint256"
                }
            ],
            "stateMutability": "view",
            "type": "function",
            "constant": true
        },
        {
            "inputs": [],
            "name": "total_fee",
            "outputs": [
                {
                    "internalType": "uint256",
                    "name": "",
                    "type": "uint256"
                }
            ],
            "stateMutability": "view",
            "type": "function",
            "constant": true
        },
        {
            "inputs": [
                {
                    "internalType": "string",
                    "name": "_name",
                    "type": "string"
                }
            ],
            "name": "addAccount",
            "outputs": [],
            "stateMutability": "nonpayable",
            "type": "function"
        },
        {
            "inputs": [
                {
                    "internalType": "string",
                    "name": "_name",
                    "type": "string"
                }
            ],
            "name": "deposit",
            "outputs": [],
            "stateMutability": "payable",
            "type": "function",
            "payable": true
        },
        {
            "inputs": [
                {
                    "internalType": "string",
                    "name": "_name",
                    "type": "string"
                },
                {
                    "internalType": "uint256",
                    "name": "_amount",
                    "type": "uint256"
                }
            ],
            "name": "withdraw",
            "outputs": [],
            "stateMutability": "nonpayable",
            "type": "function"
        },
        {
            "inputs": [
                {
                    "internalType": "string",
                    "name": "_sendername",
                    "type": "string"
                },
                {
                    "internalType": "string",
                    "name": "_receivername",
                    "type": "string"
                },
                {
                    "internalType": "uint256",
                    "name": "_amount",
                    "type": "uint256"
                }
            ],
            "name": "transfer",
            "outputs": [],
            "stateMutability": "nonpayable",
            "type": "function"
        },
        {
            "inputs": [],
            "name": "allAccounts",
            "outputs": [
                {
                    "components": [
                        {
                            "internalType": "uint256",
                            "name": "id",
                            "type": "uint256"
                        },
                        {
                            "internalType": "string",
                            "name": "accountname",
                            "type": "string"
                        },
                        {
                            "internalType": "uint256",
                            "name": "balance",
                            "type": "uint256"
                        },
                        {
                            "internalType": "address",
                            "name": "createdby",
                            "type": "address"
                        }
                    ],
                    "internalType": "struct Accounts.Account[]",
                    "name": "",
                    "type": "tuple[]"
                }
            ],
            "stateMutability": "view",
            "type": "function",
            "constant": true
        },
        {
            "inputs": [
                {
                    "internalType": "string",
                    "name": "_name",
                    "type": "string"
                }
            ],
            "name": "getAccount",
            "outputs": [
                {
                    "internalType": "uint256",
                    "name": "",
                    "type": "uint256"
                }
            ],
            "stateMutability": "view",
            "type": "function",
            "constant": true
        },
        {
            "inputs": [
                {
                    "internalType": "address",
                    "name": "_address",
                    "type": "address"
                }
            ],
            "name": "accountOf",
            "outputs": [
                {
                    "components": [
                        {
                            "internalType": "uint256",
                            "name": "id",
                            "type": "uint256"
                        },
                        {
                            "internalType": "string",
                            "name": "accountname",
                            "type": "string"
                        },
                        {
                            "internalType": "uint256",
                            "name": "balance",
                            "type": "uint256"
                        },
                        {
                            "internalType": "address",
                            "name": "createdby",
                            "type": "address"
                        }
                    ],
                    "internalType": "struct Accounts.Account[]",
                    "name": "",
                    "type": "tuple[]"
                }
            ],
            "stateMutability": "view",
            "type": "function",
            "constant": true
        }
    ],
    "bytecode": "0x6080604052600060015560006002553480156200001b57600080fd5b50600180600082825462000030919062000185565b925050819055506003604051806080016040528060015481526020016040518060400160405280600981526020017f4163636f756e74204100000000000000000000000000000000000000000000008152508152602001600081526020013373ffffffffffffffffffffffffffffffffffffffff168152509080600181540180825580915050600190039060005260206000209060040201600090919091909150600082015181600001556020820151816001019081620000f2919062000452565b506040820151816002015560608201518160030160006101000a81548173ffffffffffffffffffffffffffffffffffffffff021916908373ffffffffffffffffffffffffffffffffffffffff160217905550505062000539565b6000819050919050565b7f4e487b7100000000000000000000000000000000000000000000000000000000600052601160045260246000fd5b600062000192826200014c565b91506200019f836200014c565b9250827fffffffffffffffffffffffffffffffffffffffffffffffffffffffffffffffff03821115620001d757620001d662000156565b5b828201905092915050565b600081519050919050565b7f4e487b7100000000000000000000000000000000000000000000000000000000600052604160045260246000fd5b7f4e487b7100000000000000000000000000000000000000000000000000000000600052602260045260246000fd5b600060028204905060018216806200026457607f821691505b6020821081036200027a57620002796200021c565b5b50919050565b60008190508160005260206000209050919050565b60006020601f8301049050919050565b600082821b905092915050565b600060088302620002e47fffffffffffffffffffffffffffffffffffffffffffffffffffffffffffffffff82620002a5565b620002f08683620002a5565b95508019841693508086168417925050509392505050565b6000819050919050565b6000620003336200032d62000327846200014c565b62000308565b6200014c565b9050919050565b6000819050919050565b6200034f8362000312565b620003676200035e826200033a565b848454620002b2565b825550505050565b600090565b6200037e6200036f565b6200038b81848462000344565b505050565b5b81811015620003b357620003a760008262000374565b60018101905062000391565b5050565b601f8211156200040257620003cc8162000280565b620003d78462000295565b81016020851015620003e7578190505b620003ff620003f68562000295565b83018262000390565b50505b505050565b600082821c905092915050565b6000620004276000198460080262000407565b1980831691505092915050565b600062000442838362000414565b9150826002028217905092915050565b6200045d82620001e2565b67ffffffffffffffff811115620004795762000478620001ed565b5b6200048582546200024b565b62000492828285620003b7565b600060209050601f831160018114620004ca5760008415620004b5578287015190505b620004c1858262000434565b86555062000531565b601f198416620004da8662000280565b60005b828110156200050457848901518255600182019150602085019450602081019050620004dd565b8683101562000524578489015162000520601f89168262000414565b8355505b6001600288020188555050505b505050505050565b611beb80620005496000396000f3fe60806040526004361061009c5760003560e01c80639b80b050116100645780639b80b050146101ad578063a26e1186146101d6578063cf783d8a146101f2578063d0bdbd281461021d578063f2a40db814610248578063f5432b8b146102885761009c565b80632ad26a04146100a157806330b39a62146100ca5780634518f6b3146100f35780638086b8ba146101305780638178ad0e1461016d575b600080fd5b3480156100ad57600080fd5b506100c860048036038101906100c39190611041565b6102b3565b005b3480156100d657600080fd5b506100f160048036038101906100ec91906110c0565b61049c565b005b3480156100ff57600080fd5b5061011a60048036038101906101159190611041565b61057c565b604051610127919061112b565b60405180910390f35b34801561013c57600080fd5b50610157600480360381019061015291906111a4565b6106e7565b604051610164919061139c565b60405180910390f35b34801561017957600080fd5b50610194600480360381019061018f91906113be565b610941565b6040516101a49493929190611457565b60405180910390f35b3480156101b957600080fd5b506101d460048036038101906101cf91906114a3565b610a36565b005b6101f060048036038101906101eb9190611041565b610c0d565b005b3480156101fe57600080fd5b50610207610c5a565b604051610214919061139c565b60405180910390f35b34801561022957600080fd5b50610232610db5565b60405161023f919061112b565b60405180910390f35b34801561025457600080fd5b5061026f600480360381019061026a919061152e565b610dbb565b60405161027f9493929190611457565b60405180910390f35b34801561029457600080fd5b5061029d610ea3565b6040516102aa919061112b565b60405180910390f35b8060006001905060005b600154811015610326578280519060200120600382815481106102e3576102e261155b565b5b9060005260206000209060040201600101604051610301919061168d565b60405180910390200361031357600091505b808061031e906116d3565b9150506102bd565b50600115158115151461036e576040517f08c379a000000000000000000000000000000000000000000000000000000000815260040161036590611767565b60405180910390fd5b600073ffffffffffffffffffffffffffffffffffffffff163373ffffffffffffffffffffffffffffffffffffffff16036103a757600080fd5b600160008154809291906103ba906116d3565b9190505550600360405180608001604052806001548152602001858152602001600081526020013373ffffffffffffffffffffffffffffffffffffffff1681525090806001815401808255809150506001900390600052602060002090600402016000909190919091506000820151816000015560208201518160010190816104439190611933565b506040820151816002015560608201518160030160006101000a81548173ffffffffffffffffffffffffffffffffffffffff021916908373ffffffffffffffffffffffffffffffffffffffff1602179055505050505050565b60006104a78361057c565b90506000600382815481106104bf576104be61155b565b5b906000526020600020906004020160030160009054906101000a900473ffffffffffffffffffffffffffffffffffffffff1690508073ffffffffffffffffffffffffffffffffffffffff166108fc849081150290604051600060405180830381858888f19350505050158015610539573d6000803e3d6000fd5b50826003838154811061054f5761054e61155b565b5b9060005260206000209060040201600201600082825461056f9190611a05565b9250508190555050505050565b6000816000805b6001548110156105ec578280519060200120600382815481106105a9576105a861155b565b5b90600052602060002090600402016001016040516105c7919061168d565b6040518091039020036105d957600191505b80806105e4906116d3565b915050610583565b506001151581151514610634576040517f08c379a000000000000000000000000000000000000000000000000000000000815260040161062b90611a85565b60405180910390fd5b60005b6001548110156106a45784805190602001206003828154811061065d5761065c61155b565b5b906000526020600020906004020160010160405161067b919061168d565b60405180910390200361069157809350506106e0565b808061069c906116d3565b915050610637565b506040517f08c379a00000000000000000000000000000000000000000000000000000000081526004016106d790611a85565b60405180910390fd5b5050919050565b6060600060015467ffffffffffffffff81111561070757610706610f16565b5b60405190808252806020026020018201604052801561074057816020015b61072d610ea9565b8152602001906001900390816107255790505b509050600080600090505b600154811015610936578473ffffffffffffffffffffffffffffffffffffffff16600382815481106107805761077f61155b565b5b906000526020600020906004020160030160009054906101000a900473ffffffffffffffffffffffffffffffffffffffff1673ffffffffffffffffffffffffffffffffffffffff160361092357600381815481106107e1576107e061155b565b5b906000526020600020906004020160405180608001604052908160008201548152602001600182018054610814906115b9565b80601f0160208091040260200160405190810160405280929190818152602001828054610840906115b9565b801561088d5780601f106108625761010080835404028352916020019161088d565b820191906000526020600020905b81548152906001019060200180831161087057829003601f168201915b50505050508152602001600282015481526020016003820160009054906101000a900473ffffffffffffffffffffffffffffffffffffffff1673ffffffffffffffffffffffffffffffffffffffff1673ffffffffffffffffffffffffffffffffffffffff16815250508383815181106109095761090861155b565b5b6020026020010181905250818061091f906116d3565b9250505b808061092e906116d3565b91505061074b565b508192505050919050565b6004602052816000526040600020818154811061095d57600080fd5b906000526020600020906004020160009150915050806000015490806001018054610987906115b9565b80601f01602080910402602001604051908101604052809291908181526020018280546109b3906115b9565b8015610a005780601f106109d557610100808354040283529160200191610a00565b820191906000526020600020905b8154815290600101906020018083116109e357829003601f168201915b5050505050908060020154908060030160009054906101000a900473ffffffffffffffffffffffffffffffffffffffff16905084565b6000610a418361057c565b90506000610a4e8561057c565b90503373ffffffffffffffffffffffffffffffffffffffff1660038381548110610a7b57610a7a61155b565b5b906000526020600020906004020160030160009054906101000a900473ffffffffffffffffffffffffffffffffffffffff1673ffffffffffffffffffffffffffffffffffffffff1603610b45578260038281548110610add57610adc61155b565b5b90600052602060002090600402016002016000828254610afd9190611a05565b925050819055508260038381548110610b1957610b1861155b565b5b90600052602060002090600402016002016000828254610b399190611aa5565b92505081905550610c06565b60006064600185610b569190611afb565b610b609190611b84565b90508060026000828254610b749190611aa5565b9250508190555060008185610b899190611a05565b90508460038481548110610ba057610b9f61155b565b5b90600052602060002090600402016002016000828254610bc09190611a05565b925050819055508060038581548110610bdc57610bdb61155b565b5b90600052602060002090600402016002016000828254610bfc9190611aa5565b9250508190555050505b5050505050565b6000610c188261057c565b90503460038281548110610c2f57610c2e61155b565b5b90600052602060002090600402016002016000828254610c4f9190611aa5565b925050819055505050565b60606003805480602002602001604051908101604052809291908181526020016000905b82821015610dac578382906000526020600020906004020160405180608001604052908160008201548152602001600182018054610cbb906115b9565b80601f0160208091040260200160405190810160405280929190818152602001828054610ce7906115b9565b8015610d345780601f10610d0957610100808354040283529160200191610d34565b820191906000526020600020905b815481529060010190602001808311610d1757829003601f168201915b50505050508152602001600282015481526020016003820160009054906101000a900473ffffffffffffffffffffffffffffffffffffffff1673ffffffffffffffffffffffffffffffffffffffff1673ffffffffffffffffffffffffffffffffffffffff168152505081526020019060010190610c7e565b50505050905090565b60025481565b60038181548110610dcb57600080fd5b9060005260206000209060040201600091509050806000015490806001018054610df4906115b9565b80601f0160208091040260200160405190810160405280929190818152602001828054610e20906115b9565b8015610e6d5780601f10610e4257610100808354040283529160200191610e6d565b820191906000526020600020905b815481529060010190602001808311610e5057829003601f168201915b5050505050908060020154908060030160009054906101000a900473ffffffffffffffffffffffffffffffffffffffff16905084565b60015481565b6040518060800160405280600081526020016060815260200160008152602001600073ffffffffffffffffffffffffffffffffffffffff1681525090565b6000604051905090565b600080fd5b600080fd5b600080fd5b600080fd5b6000601f19601f8301169050919050565b7f4e487b7100000000000000000000000000000000000000000000000000000000600052604160045260246000fd5b610f4e82610f05565b810181811067ffffffffffffffff82111715610f6d57610f6c610f16565b5b80604052505050565b6000610f80610ee7565b9050610f8c8282610f45565b919050565b600067ffffffffffffffff821115610fac57610fab610f16565b5b610fb582610f05565b9050602081019050919050565b82818337600083830152505050565b6000610fe4610fdf84610f91565b610f76565b90508281526020810184848401111561100057610fff610f00565b5b61100b848285610fc2565b509392505050565b600082601f83011261102857611027610efb565b5b8135611038848260208601610fd1565b91505092915050565b60006020828403121561105757611056610ef1565b5b600082013567ffffffffffffffff81111561107557611074610ef6565b5b61108184828501611013565b91505092915050565b6000819050919050565b61109d8161108a565b81146110a857600080fd5b50565b6000813590506110ba81611094565b92915050565b600080604083850312156110d7576110d6610ef1565b5b600083013567ffffffffffffffff8111156110f5576110f4610ef6565b5b61110185828601611013565b9250506020611112858286016110ab565b9150509250929050565b6111258161108a565b82525050565b6000602082019050611140600083018461111c565b92915050565b600073ffffffffffffffffffffffffffffffffffffffff82169050919050565b600061117182611146565b9050919050565b61118181611166565b811461118c57600080fd5b50565b60008135905061119e81611178565b92915050565b6000602082840312156111ba576111b9610ef1565b5b60006111c88482850161118f565b91505092915050565b600081519050919050565b600082825260208201905092915050565b6000819050602082019050919050565b6112068161108a565b82525050565b600081519050919050565b600082825260208201905092915050565b60005b8381101561124657808201518184015260208101905061122b565b83811115611255576000848401525b50505050565b60006112668261120c565b6112708185611217565b9350611280818560208601611228565b61128981610f05565b840191505092915050565b61129d81611166565b82525050565b60006080830160008301516112bb60008601826111fd565b50602083015184820360208601526112d3828261125b565b91505060408301516112e860408601826111fd565b5060608301516112fb6060860182611294565b508091505092915050565b600061131283836112a3565b905092915050565b6000602082019050919050565b6000611332826111d1565b61133c81856111dc565b93508360208202850161134e856111ed565b8060005b8581101561138a578484038952815161136b8582611306565b94506113768361131a565b925060208a01995050600181019050611352565b50829750879550505050505092915050565b600060208201905081810360008301526113b68184611327565b905092915050565b600080604083850312156113d5576113d4610ef1565b5b60006113e38582860161118f565b92505060206113f4858286016110ab565b9150509250929050565b600082825260208201905092915050565b600061141a8261120c565b61142481856113fe565b9350611434818560208601611228565b61143d81610f05565b840191505092915050565b61145181611166565b82525050565b600060808201905061146c600083018761111c565b818103602083015261147e818661140f565b905061148d604083018561111c565b61149a6060830184611448565b95945050505050565b6000806000606084860312156114bc576114bb610ef1565b5b600084013567ffffffffffffffff8111156114da576114d9610ef6565b5b6114e686828701611013565b935050602084013567ffffffffffffffff81111561150757611506610ef6565b5b61151386828701611013565b9250506040611524868287016110ab565b9150509250925092565b60006020828403121561154457611543610ef1565b5b6000611552848285016110ab565b91505092915050565b7f4e487b7100000000000000000000000000000000000000000000000000000000600052603260045260246000fd5b7f4e487b7100000000000000000000000000000000000000000000000000000000600052602260045260246000fd5b600060028204905060018216806115d157607f821691505b6020821081036115e4576115e361158a565b5b50919050565b600081905092915050565b60008190508160005260206000209050919050565b60008154611617816115b9565b61162181866115ea565b9450600182166000811461163c576001811461165157611684565b60ff1983168652811515820286019350611684565b61165a856115f5565b60005b8381101561167c5781548189015260018201915060208101905061165d565b838801955050505b50505092915050565b6000611699828461160a565b915081905092915050565b7f4e487b7100000000000000000000000000000000000000000000000000000000600052601160045260246000fd5b60006116de8261108a565b91507fffffffffffffffffffffffffffffffffffffffffffffffffffffffffffffffff82036117105761170f6116a4565b5b600182019050919050565b7f4163636f756e74206e616d65206973206e6f7420756e69717565000000000000600082015250565b6000611751601a836113fe565b915061175c8261171b565b602082019050919050565b6000602082019050818103600083015261178081611744565b9050919050565b60008190508160005260206000209050919050565b60006020601f8301049050919050565b600082821b905092915050565b6000600883026117e97fffffffffffffffffffffffffffffffffffffffffffffffffffffffffffffffff826117ac565b6117f386836117ac565b95508019841693508086168417925050509392505050565b6000819050919050565b600061183061182b6118268461108a565b61180b565b61108a565b9050919050565b6000819050919050565b61184a83611815565b61185e61185682611837565b8484546117b9565b825550505050565b600090565b611873611866565b61187e818484611841565b505050565b5b818110156118a25761189760008261186b565b600181019050611884565b5050565b601f8211156118e7576118b881611787565b6118c18461179c565b810160208510156118d0578190505b6118e46118dc8561179c565b830182611883565b50505b505050565b600082821c905092915050565b600061190a600019846008026118ec565b1980831691505092915050565b600061192383836118f9565b9150826002028217905092915050565b61193c8261120c565b67ffffffffffffffff81111561195557611954610f16565b5b61195f82546115b9565b61196a8282856118a6565b600060209050601f83116001811461199d576000841561198b578287015190505b6119958582611917565b8655506119fd565b601f1984166119ab86611787565b60005b828110156119d3578489015182556001820191506020850194506020810190506119ae565b868310156119f057848901516119ec601f8916826118f9565b8355505b6001600288020188555050505b505050505050565b6000611a108261108a565b9150611a1b8361108a565b925082821015611a2e57611a2d6116a4565b5b828203905092915050565b7f4163636f756e74206e6f7420666f756e64000000000000000000000000000000600082015250565b6000611a6f6011836113fe565b9150611a7a82611a39565b602082019050919050565b60006020820190508181036000830152611a9e81611a62565b9050919050565b6000611ab08261108a565b9150611abb8361108a565b9250827fffffffffffffffffffffffffffffffffffffffffffffffffffffffffffffffff03821115611af057611aef6116a4565b5b828201905092915050565b6000611b068261108a565b9150611b118361108a565b9250817fffffffffffffffffffffffffffffffffffffffffffffffffffffffffffffffff0483118215151615611b4a57611b496116a4565b5b828202905092915050565b7f4e487b7100000000000000000000000000000000000000000000000000000000600052601260045260246000fd5b6000611b8f8261108a565b9150611b9a8361108a565b925082611baa57611ba9611b55565b5b82820490509291505056fea2646970667358221220939310b2c79ceb07c24a68137d4f2209b9e0195819915fcd60e6ed1618bd041164736f6c634300080f0033",
    "immutableReferences": {},
    "source": "// SPDX-License-Identifier: MIT\npragma solidity >=0.4.22 <0.9.0;\n\ncontract Accounts {\n    address payable owner;\n\n    uint public no_of_accounts = 0;\n    uint public total_fee = 0;\n\n    struct Account {\n        uint id;\n        string accountname;\n        uint balance;\n        address createdby;\n    }\n\n    Account[] public accounts;\n\n    mapping(address => Account[]) public accountToAddresses;\n\n    modifier onlyOwner(uint _index) {\n        require(msg.sender == accounts[_index].createdby, \"Only account owner can perform function\");\n        _;\n    }\n\n    modifier enoughBalance(uint _index) {\n        require(msg.value >= accounts[_index].balance, \"Not enough balance\");\n        _;\n    }\n\n    modifier uniqueAccountName(string memory _name) {\n        bool isunique = true;\n        for (uint i = 0; i < no_of_accounts; i++) {\n            if (keccak256(bytes(accounts[i].accountname)) == keccak256(bytes(_name))) {\n                isunique = false;\n            }\n        }\n\n        require(isunique == true, \"Account name is not unique\");\n        _;\n    }\n\n    modifier accountExisted(string memory _name) {\n        bool isexisted = false;\n        for (uint i = 0; i < no_of_accounts; i++) {\n            if (keccak256(bytes(accounts[i].accountname)) == keccak256(bytes(_name))) {\n                isexisted = true;\n            }\n        }\n\n        require(isexisted == true, \"Account not found\");\n        _;\n    }\n\n    constructor() {\n        no_of_accounts += 1;\n        accounts.push(Account(no_of_accounts, \"Account A\", 0, msg.sender));\n    }\n\n    function addAccount(string memory _name) public uniqueAccountName(_name) {\n        require(msg.sender != address(0));\n        no_of_accounts ++;\n        accounts.push(Account(no_of_accounts, _name, 0, msg.sender));\n    }\n\n    function deposit(string memory _name) public payable {\n        uint index = getAccount(_name);\n        accounts[index].balance += msg.value;\n    }\n\n    function withdraw(string memory _name, uint _amount) public {\n        uint index = getAccount(_name);\n        address payable receiver = payable(accounts[index].createdby);\n        receiver.transfer(_amount);\n        accounts[index].balance -= _amount;\n    }\n\n    function transfer(string memory _sendername, string memory _receivername, uint _amount) public {\n        uint receiverindex = getAccount(_receivername);\n        uint senderindex = getAccount(_sendername);\n\n        if (accounts[receiverindex].createdby == msg.sender) {\n            accounts[senderindex].balance -= _amount;\n            accounts[receiverindex].balance += _amount;\n        } else {\n            uint fee = _amount * 1 / 100;\n            total_fee += fee;\n            uint deducted_fee_amount = _amount - fee;\n            accounts[senderindex].balance -= _amount;\n            accounts[receiverindex].balance += deducted_fee_amount;\n        }\n    }\n\n    function allAccounts() public view returns (Account[] memory) {\n        return accounts;\n    }\n\n    function getAccount(string memory _name) public accountExisted(_name) view returns (uint) {\n        for (uint i = 0; i < no_of_accounts; i++) {\n            if (keccak256(bytes(accounts[i].accountname)) == keccak256(bytes(_name))\n                ) {\n                return i;\n            }\n        }\n        revert('Account not found');\n    }\n\n    function accountOf(address _address) public view returns(Account[] memory) {\n        Account[] memory myAccounts = new Account[](no_of_accounts);\n        uint j;\n        for (uint i = 0; i < no_of_accounts; i++) {\n            if (accounts[i].createdby == _address) {\n                myAccounts[j] = accounts[i];\n                j++;\n            }\n        }\n        return myAccounts;\n    }\n\n}\n\n// Accounts.deployed().then(function(instance) { return instance.allAccounts() })\n// Accounts.deployed().then(function(instance) { return instance.addAccount(\"Account A\") })\n// Accounts.deployed().then(function(instance) { return instance.getAccount(0) })\n// Accounts.deployed().then(function(instance) { return instance.deposit(\"Account A\",{value: web3.utils.toWei(\"3\", 'ether')}) })\n// Accounts.deployed().then(function(instance) { return instance.withdraw(\"Account A\", web3.utils.toWei(\"1\", 'ether')) })\n// Accounts.deployed().then(function(instance) { return instance.transfer(\"Account A\", \"Account B\", web3.utils.toWei(\"1\", 'ether')) })\n",
    "sourcePath": "/Users/ssanpawat/blockcamp/contracts/Accounts.sol",
    "compiler": {
        "name": "solc",
        "version": "0.8.15+commit.e14f2714.Emscripten.clang"
    },
    "schemaVersion": "3.4.8",
    "updatedAt": "2022-07-17T02:19:30.294Z",
    "networkType": "ethereum",
    "devdoc": {
        "kind": "dev",
        "methods": {},
        "version": 1
    },
    "userdoc": {
        "kind": "user",
        "methods": {},
        "version": 1
    }
}